:020000040800F2
:1000000000C0002055240008C9180008CF180008B7
:10001000D5180008DB180008E118000800000000EF
:10002000000000000000000000000000E7180008C9
:10003000F318000800000000FF1800080B19000862
:100040009D2400089D2400089D2400089D2400088C
:100050009D2400089D2400089D2400089D2400087C
:100060009D2400089D2400089D2400089D2400086C
:100070009D2400089D240008191900089D240008EB
:100080009D2400089D2400089D2400089D2400084C
:100090009D2400089D2400089D2400089D2400083C
:1000A0009D2400089D2400089D2400089D2400082C
:1000B0009D2400089D2400089D2400089D2400081C
:1000C0009D2400089D2400089D2400089D2400080C
:1000D0009D2400082D1900089D2400089D24000877
:1000E0009D2400089D2400089D2400089D240008EC
:1000F0009D2400089D2400089D2400089D240008DC
:100100009D2400089D2400089D2400089D240008CB
:100110009D2400089D2400089D2400084119000822
:100120009D2400089D2400089D2400089D240008AB
:1001300000000000000000000000000000000000BF
:1001400000000000000000000000000000000000AF
:10015000000000000000000000000000000000009F
:10016000000000000000000000000000000000008F
:10017000000000000000000000000000000000007F
:10018000000000000000000000000000000000006F
:10019000000000000000000000000000000000005F
:1001A000000000000000000000000000000000004F
:1001B000000000000000000000000000000000003F
:1001C000000000000000000000000000000000002F
:1001D000000000000000000000000000000000001F
:0401E0005FF8E0F1F3
:1001E40010B5054C237833B9044B13B10448AFF36D
:1001F40000800123237010BD1800002000000000BF
:10020400E858000808B5034B1BB103490348AFF392
:10021400008008BD000000001C000020E858000811
:1002240080F0004002E000BF81F0004142001FBFA7
:100234005FEA410392EA030F7FEA226C7FEA236CB0
:100244006AD04FEA1262D2EB1363C1BFD2184140A5
:1002540048404140B8BF5B42192B88BF704710F03B
:10026400004F40F4000020F07F4018BF404211F0DE
:10027400004F41F4000121F07F4118BF494292EA46
:10028400030F3FD0A2F1010241FA03FC10EB0C0072
:10029400C3F1200301FA03F100F0004302D54942FF
:1002A40060EB4000B0F5000F13D3B0F1807F06D3AC
:1002B40040084FEA310102F10102FE2A51D2B1F1A4
:1002C400004F40EBC25008BF20F0010040EA030099
:1002D4007047490040EB0000013A28BFB0F5000F19
:1002E400EDD2B0FA80FCACF1080CB2EB0C0200FACF
:1002F4000CF0AABF00EBC25052421843BCBFD0401E
:100304001843704792F0000F81F4000106BF80F497
:1003140000000132013BB5E74FEA41037FEA226C5A
:1003240018BF7FEA236C21D092EA030F04D092F025
:10033400000F08BF0846704790EA010F1CBF002059
:10034400704712F07F4F04D1400028BF40F00040B6
:10035400704712F100723CBF00F50000704700F0D6
:10036400004343F0FE4040F4000070477FEA2262FD
:1003740016BF08467FEA23630146420206BF5FEACE
:10038400412390EA010F40F4800070474FF00003CE
:1003940004E000BF10F0004348BF40425FEA000C95
:1003A40008BF704743F0964301464FF000001CE03D
:1003B40050EA010208BF70474FF000030AE000BF93
:1003C40050EA010208BF704711F0004302D54042D1
:1003D40061EB41015FEA010C02BF84460146002043
:1003E40043F0B64308BFA3F18053A3F50003BCFA5E
:1003F4008CF2083AA3EBC25310DB01FA02FC63440B
:1004040000FA02FCC2F12002BCF1004F20FA02F211
:1004140043EB020008BF20F00100704702F1200204
:1004240001FA02FCC2F1200250EA4C0021FA02F265
:1004340043EB020008BF20EADC7070474FF0FF0C6A
:100444001CEAD0521EBF1CEAD15392EA0C0F93EA65
:100454000C0F6FD01A4480EA010C400218BF5FEA07
:1004640041211ED04FF0006343EA501043EA51117A
:10047400A0FB01310CF00040B1F5000F3EBF490074
:1004840041EAD3715B0040EA010062F17F02FD2A78
:100494001DD8B3F1004F40EBC25008BF20F001005B
:1004A400704790F0000F0CF0004C08BF49024CEA72
:1004B400502040EA51207F3AC2BFD2F1FF0340EA04
:1004C400C250704740F400004FF00003013A5DDC75
:1004D40012F1190FDCBF00F000407047C2F10002B6
:1004E400410021FA02F1C2F1200200FA02FC5FEAA3
:1004F400310040F1000053EA4C0308BF20EADC70ED
:10050400704792F0000F00F0004C02BF400010F45E
:10051400000F013AF9D040EA0C0093F0000F01F00B
:10052400004C02BF490011F4000F013BF9D041EA2D
:100534000C018FE70CEAD15392EA0C0F18BF93EA2F
:100544000C0F0AD030F0004C18BF31F0004CD8D159
:1005540080EA010000F00040704790F0000F17BFE0
:1005640090F0004F084691F0000F91F0004F14D026
:1005740092EA0C0F01D142020FD193EA0C0F03D17E
:100584004B0218BF084608D180EA010000F0004081
:1005940040F0FE4040F40000704740F0FE4040F45C
:1005A400400070474FF0FF0C1CEAD0521EBF1CEAFB
:1005B400D15392EA0C0F93EA0C0F69D0A2EB030219
:1005C40080EA010C49024FEA402037D04FF08053B3
:1005D40043EA111143EA10130CF000408B4238BF78
:1005E4005B0042F17D024FF4000C8B4224BF5B1A86
:1005F40040EA0C00B3EB510F24BFA3EB510340EAD4
:100604005C00B3EB910F24BFA3EB910340EA9C0081
:10061400B3EBD10F24BFA3EBD10340EADC001B01F1
:1006240018BF5FEA1C1CE0D1FD2A3FF650AF8B4295
:1006340040EBC25008BF20F0010070470CF0004CA2
:100644004CEA50207F32C2BFD2F1FF0340EAC250CD
:10065400704740F400004FF00003013A37E792F08E
:10066400000F00F0004C02BF400010F4000F013AEC
:10067400F9D040EA0C0093F0000F01F0004C02BFE7
:10068400490011F4000F013BF9D041EA0C0195E750
:100694000CEAD15392EA0C0F08D142027FF47DAFE9
:1006A40093EA0C0F7FF470AF084676E793EA0C0FD9
:1006B40004D14B023FF44CAF08466EE730F0004CD7
:1006C40018BF31F0004CCAD130F000427FF45CAF67
:1006D40031F000437FF43CAF5FE700BF4FF0FF3CD5
:1006E40006E000BF4FF0010C02E000BF4FF0010C28
:1006F4004DF804CD4FEA40024FEA41037FEA226CF1
:1007040018BF7FEA236C11D001B052EA530C18BF12
:1007140090EA010F58BFB2EB030088BFC81738BF77
:100724006FEAE17018BF40F0010070477FEA226C65
:1007340002D15FEA402C05D17FEA236CE4D15FEA61
:10074400412CE1D05DF8040B704700BF8446084695
:100754006146FFE70FB5FFF7C9FF002848BF10F156
:10076400000F0FBD4DF808EDFFF7F4FF0CBF01209B
:1007740000205DF808FB00BF4DF808EDFFF7EAFF25
:1007840034BF012000205DF808FB00BF4DF808EDE0
:10079400FFF7E0FF94BF012000205DF808FB00BFD5
:1007A4004DF808EDFFF7D2FF94BF012000205DF85B
:1007B40008FB00BF4DF808EDFFF7C8FF34BF012068
:1007C40000205DF808FB00BF4FEA4002B2F1FE4F83
:1007D4000FD34FF09E03B3EB12620DD94FEA0023FF
:1007E40043F0004310F0004F23FA02F018BF4042D8
:1007F40070474FF00000704712F1610F01D14202BF
:1008040005D110F0004008BF6FF0004070474FF072
:100814000000704780B500AF094B1B780133DAB292
:10082400074B1A70064B1B78142B07D9044B002274
:100834001A704FF40051034802F07BFD00BF80BDE5
:10084400380000200010014080B500AF00F0ACFE7D
:1008540000F09CFB00F06AF900F054FC00F0F2FD9B
:10086400322000F067F800BF80BD000080B500AF03
:1008740000F03AFB012000F085F90346002B19D063
:10088400322000F057F8104B1B68002B09D132239B
:1008940032223221322000F025FE0B4B01221A6055
:1008A40008E0962396229621962000F01BFE064B24
:1008B40000221A60FFF7AEFF00F07CF80A2001F076
:1008C4004FFE00BF80BD00BF3400002080B483B061
:1008D40000AF0346FB80044AFB88138000BF0C373B
:1008E400BD4680BC704700BF3A00002080B400AF12
:1008F400024B1B881846BD4680BC70473A00002056
:1009040080B483B000AF0346FB71044AFB791370D3
:1009140000BF0C37BD4680BC704700BF3C000020C0
:1009240080B400AF024B1B781846BD4680BC7047AC
:100934003C00002080B582B000AF0346FB80FB88FA
:10094400012B0BD10120FFF7DBFF0020FFF7BEFFD7
:1009540001222021154802F0D4FC22E0FB88002B60
:100964000BD10020FFF7CCFF0020FFF7AFFF0022E0
:1009740020210E4802F0C5FC13E0FB88092B10D996
:100984000220FFF7BDFFFB88094AA2FB0323DB0813
:100994009BB21846FFF79AFF01222021034802F078
:1009A400B0FC00BF0837BD4680BD00BF0010014049
:1009B400CDCCCCCC80B500AFFFF7B2FF0346022B01
:1009C40013D1FFF793FF0346002B06D0084B1B8877
:1009D400013B9AB2064B1A8007E000222021054809
:1009E40002F08FFC0020FFF78BFF00BF80BD00BF2B
:1009F4003A0000200010014080B485B000AF0346E7
:100A0400FB710023FB81FB79032B29D801A252F847
:100A140023F000BF290A00083B0A0008490A00081D
:100A2400570A00084FF080435B6AFB814FF0804314
:100A340000225A6215E00E4B5B6AFB810C4B0022CC
:100A44005A620EE00B4B5B6AFB810A4B00225A622E
:100A540007E0094B5B6AFB81074B00225A6200E006
:100A640000BFB7F90E3018461437BD4680BC704736
:100A740000080040000C00400004004080B483B033
:100A840000AF78600B4B1A687B681A607B6804338C
:100A9400094A12681A607B680833084A12681A60A7
:100AA4007B680C33064A12681A6000BF0C37BD46D7
:100AB40080BC704740000020440000204800002013
:100AC4004C00002080B500AF0020FFF795FF0346DF
:100AD4001A46124B1B689B1A104A13600120FFF739
:100AE4008BFF03461A460E4B1B6813440C4A1360D3
:100AF4000220FFF781FF03461A460A4B1B68134482
:100B0400084A13600320FFF777FF03461A46064B93
:100B14001B689B1A044A136000BF80BD400000207C
:100B240044000020480000204C00002080B500AFA5
:100B34000421084803F094FA0421074803F090FACA
:100B44000421064803F08CFA0421054803F088FACE
:100B540000BF80BD9C010020E40100202C02002085
:100B64007402002080B500AF0421054802F0B2FBF6
:100B74000346002B01D1012300E00023184680BD69
:100B84000014014080B582B000AF0346FB71FFF74B
:100B9400E9FF0346012B0ED10E4B1B881A46FB7945
:100BA40001335B009A4209DA0A4B1B8801339AB27B
:100BB400084B1A8002E0074B00221A80054B1B8861
:100BC400022B01D1012300E0002318460837BD465B
:100BD40080BD00BF5000002090B585B000AF044632
:100BE400084611461A462346FB800346BB800B4643
:100BF4007B8013463B804FF4FA63FB81B7F90620F0
:100C0400B7F90E305B429A420BDBB7F90620B7F90D
:100C14000E309A4205DCB7F906301946002000F080
:100C2400DDF9B7F90420B7F90E305B429A420BDBC9
:100C3400B7F90420B7F90E309A4205DCB7F904304D
:100C44001946012000F0CAF9B7F90220B7F90E30AD
:100C54005B429A420BDBB7F90220B7F90E309A4295
:100C640005DCB7F902301946022000F0B7F9B7F9EC
:100C74000020B7F90E305B429A420BDBB7F9002033
:100C8400B7F90E309A4205DCB7F900301946032053
:100C940000F0A4F900BF1437BD4690BD80B588B0FC
:100CA40000AF786000F0EEF800F0E2F8F861664B0F
:100CB4001B68642202FB03F31846FFF76BFB034631
:100CC400F9691846FFF7BAFB034660491846FFF76F
:100CD40069FC0346BB615C4B5B68642202FB03F363
:100CE4001846FFF757FB0346F9691846FFF7A6FBBA
:100CF400034656491846FFF755FC03467B61524BA1
:100D04009B68642202FB03F31846FFF743FB034688
:100D1400F9691846FFF792FB03464C491846FFF75A
:100D240041FC03463B61484BDB68642202FB03F34E
:100D34001846FFF72FFB0346F9691846FFF77EFBB9
:100D4400034642491846FFF72DFC0346FB6000F0BA
:100D540085F8B8607969B869FFF768FA03463969B4
:100D64001846FFF763FA0346F9681846FFF75EFA78
:100D740003464FF081411846FFF714FC034618461A
:100D8400FFF722FD03461AB27B681A807969B869B5
:100D9400FFF74AFA034639691846FFF745FA03464E
:100DA400F9681846FFF742FA034683F000434FF010
:100DB40081411846FFF7F6FB03461846FFF704FD8A
:100DC40003461AB27B685A807969B869FFF72EFA2C
:100DD400034639691846FFF727FA0346F9681846A7
:100DE400FFF722FA034683F000434FF0814118468F
:100DF400FFF7D8FB0346B9681846FFF7D3FB034651
:100E040013491846FFF71AFB03461846FFF7DCFCA4
:100E140003461AB27B689A800E4B1B78002B0ED0C7
:100E24000D4ABB6913600C4A7B6953600A4A3B69EB
:100E34009360094AFB68D360074800F063FA00BF77
:100E44002037BD4680BD00BF740000200000A544CB
:100E540000007A44840000209000002080B400AF99
:100E6400024B1846BD4680BC704700BF148E244315
:100E740080B400AF024B1846BD4680BC704700BF2B
:100E8400F8334C4380B582B000AFFFF71BFE134824
:100E9400FFF7F4FD0023FB7117E0FB790F4A52F8CA
:100EA4002310FB790E4A52F82320FB798A1A0D4944
:100EB40041F82320FA79FB79084951F8222008499E
:100EC40041F82320FB790133FB71FB79032BE4D92F
:100ED40000BF00BF0837BD4680BD00BF54000020DE
:100EE4006400002074000020F8B500AF1448FFF738
:100EF400D5FE144B1B78002B20D0134B1B691846CE
:100F0400FFF762FC03461CB20F4B5B691846FFF700
:100F14005BFC03461DB20C4B9B691846FFF754FC5F
:100F240003461EB2084BDB691846FFF74DFC034627
:100F34001BB2324629462046FFF74EFE00BFF8BDDD
:100F440088000020840000209000002080B483B03A
:100F540000AF0346FB80B7F90630002B05DDFB88A4
:100F640003F5C8639BB21BB20AE0B7F90630002B45
:100F740005DAFB88A3F5C8639BB21BB200E000232B
:100F840018460C37BD4680BC7047000080B500AFE2
:100F94000021104802F008FF04210E4803F07CFEF3
:100FA40008210C4803F078FE0C210A4802F0FCFEEC
:100FB4000021094802F0F8FE0421074802F0F4FE7B
:100FC4000821054802F0F0FE0C21034802F0ECFE73
:100FD40000BF80BD540100200403002080B584B00C
:100FE40000AF03460A46FB711346BB80B7F90430D1
:100FF4001846FFF7ABFF0346FB81B7F90E30B3F594
:10100400616F02DB4FF46163FB81B7F90E3013F5B6
:10101400616F02DC4FF2F013FB81FB79032B67D87D
:1010240001A252F823F000BF3D1000086F10000821
:10103400A1100008CB100008FB895B429BB2FB8126
:10104400B7F90E30002B07DB2C4AB7F90E30536387
:101054002A4B00229A634CE0284B00225A63B7F9CA
:101064000E305A42254B9A6343E0FB895B429BB2A4
:10107400FB81B7F90E30002B07DB204AB7F90E309D
:10108400D3631E4B00221A6433E01C4B0022DA6344
:10109400B7F90E305A42194B1A642AE0B7F90E30E8
:1010A400002B07DB164AB7F90E301364144B0022E9
:1010B4005A631EE0124B00221A64B7F90E305A42EA
:1010C4000F4B5A6315E0B7F90E30002B07DB0C4ABF
:1010D400B7F90E3093630A4B0022DA6309E0084B38
:1010E40000229A63B7F90E305A42054BDA6300E0E6
:1010F40000BF00BF1037BD4680BD00BF00340140B3
:10110400002C014080B483B000AF00237B6062E018
:1011140035497A681346DB0013449B000B444FF0B7
:1011240000021A6030497A681346DB0013449B00BE
:101134000B4404334FF000021A602B497A681346BB
:10114400DB0013449B000B4414334FF000021A607D
:1011540025497A681346DB0013449B000B4418337B
:101164004FF000021A6020497A681346DB001344EA
:101174009B000B441C334FF000021A601A497A6832
:101184001346DB0013449B000B4420334FF0000252
:101194001A6015497A681346DB0013449B000B441C
:1011A4000833124A1A6010497A681346DB00134464
:1011B4009B000B440C330E4A1A600B497A681346A1
:1011C400DB0013449B000B4410334FF07C521A6035
:1011D4007B6801337B607B68032B99DD00BF00BF14
:1011E4000C37BD4680BC7047B8000020CDCC4C3FC6
:1011F4008FC2753D2DE9F04182B000AF786039604F
:101204007B681B6839681846FFF70EF803461A46D0
:101214007B685A617B685C687B689D687B685A69F7
:101224007B68DB6919461046FEF7FEFF0346194644
:101234002846FFF703F903461D467B68DA687B6896
:101244005B6919461046FFF7F9F803461946284624
:10125400FEF7ECFF034698467B681D697B685E6970
:101264007B68DB6919461846FEF7E0FF034619461A
:101274003046FEF7D9FF03461A467B689B69194638
:101284001046FEF7D3FF034619462846FFF7D6F863
:10129400034619464046FEF7C9FF03461946204651
:1012A400FEF7C4FF03461A467B685A607B68DA6916
:1012B4007B689A617B685A697B68DA617B685B68E2
:1012C4000E491846FFF776FA0346002B02D07B68D6
:1012D4000A4A5A607B685B6809491846FFF74CFA6A
:1012E4000346002B02D07B68054A5A607B685B6822
:1012F40018460837BD46BDE8F08100BF00006145CF
:10130400000061C580B584B000AF78600023FB6045
:1013140016E0FA681346DB0013449B000C4A981845
:101324007B68FA6853F822301946FFF763FF0146D9
:101334007B68FA68043243F82210FB680133FB60CF
:10134400FB68032BE5DD00BF00BF1037BD4680BD41
:10135400B800002080B485B000AF0346FB71FA7971
:1013640013469B0013445B00134403F5FA73064AC7
:1013740082FB03129210DB17D31AFB81FB891846F8
:101384001437BD4680BC70476766666680B500AF9B
:10139400294B1B8801339AB2274B1A80274B1A8892
:1013A400254B1B889A4205D301220821244801F0C9
:1013B400A8FF04E000220821214801F0A2FF1F4BEE
:1013C4005A881D4B1B889A4205D3012204211C48CC
:1013D40001F097FF04E000220421194801F091FF75
:1013E400164B9A88144B1B889A4205D3012202217A
:1013F400134801F086FF04E000220221104801F0A6
:1014040080FF0E4BDA880C4B1B889A4205D30122CD
:1014140001210B4801F075FF04E000220121084876
:1014240001F06FFF044B1B88B3F5FA6F02D3024B34
:1014340000221A8000BF80BD480100200400002063
:101444000010014080B582B000AF00237B6014E03F
:101454000E4A7B6813445A221A700C4A7B68134460
:101464001B781846FFF776FF03461946084A7B683F
:1014740022F813107B6801337B607B68032BE7DD64
:1014840000BF00BF0837BD4680BD00BF000000207C
:101494000400002090B583B000AF03460A46FB71F8
:1014A4001346BB71FB79032B11D8BB79B42B10D82D
:1014B400FB790A49BA79CA54FC79BB791846FFF713
:1014C40049FF03461A46064B23F8142002E000BFE6
:1014D40000E000BF0C37BD4690BD00BF00000020F7
:1014E4000400002090B583B000AF044608461146BE
:1014F4001A462346FB710346BB710B467B711346A8
:101504003B71FB79B42B0AD81C4AFB791370FB7925
:101514001846FFF71FFF03461A46194B1A80BB797A
:10152400B42B0AD8154ABB795370BB791846FFF718
:1015340011FF03461A46124B5A807B79B42B0AD802
:101544000E4A7B7993707B791846FFF703FF0346B5
:101554001A460B4B9A803B79B42B0AD8074A3B793D
:10156400D3703B791846FFF7F5FE03461A46044B41
:10157400DA8000BF0C37BD4690BD00BF00000020DC
:101584000400002080B582B000AF78607B681A68E0
:10159400044B1B689A4201D1FFF7F8FE00BF0837DD
:1015A400BD4680BDBC02002080B500AF08220349BF
:1015B400034803F05DFD00BF80BD00BF4C01002067
:1015C4004C03002080B584B000AF78600E4BDB780C
:1015D400FB73FB7B032B0DD10B4B1B79BB730A4BAA
:1015E4005B797B73BB7B013BDBB27A7B114618468C
:1015F400FFF750FF08220449044803F039FD00BFF7
:101604001037BD4680BD00BF4C0100204C030020B4
:1016140080B582B000AF0C4B5B690B4A43F0010309
:101624005361094B5B6903F001037B607B68002213
:1016340000210E2001F08FF80E2001F0A8F800BF61
:101644000837BD4680BD00BF0010024080B588B099
:1016540000AF07F1100300221A605A609A60DA6042
:10166400464B9B69454A43F010039361434B9B6986
:1016740003F01003FB60FB68404B9B693F4A43F057
:10168400200393613D4B9B6903F02003BB60BB685F
:101694003A4B9B69394A43F004039361374B9B6986
:1016A40003F004037B607B68344B9B69334A43F04B
:1016B40008039361314B9B6903F008033B603B686B
:1016C400002242F22F012E4801F01BFE01224FF4AA
:1016D40020412C4801F015FE00224FF48041294896
:1016E40001F00FFE42F220033B6101237B610023E2
:1016F400BB610223FB6107F110031946204801F086
:1017040055FC0F233B6101237B610023BB61032351
:10171400FB6107F110031946194801F047FC4FF427
:1017240020433B6101237B610123BB610323FB61F4
:1017340007F110031946134801F038FC4FF48043B5
:101744003B6101237B610023BB610223FB6107F141
:10175400100319460B4801F029FC04233B610023C4
:101764007B610123BB6107F110031946064801F0B0
:101774001DFC00BF2037BD4680BD00BF00100240E5
:1017840000100140000C01400014014080B500AF7E
:1017940000F084FE00F019F8FFF758FFFFF738FF58
:1017A40000F0AEFD00F0DAF800F024FB00F09AF946
:1017B40000F0ECF900F03EFA00F090FA00F0E2FAE2
:1017C400FFF742F8FFF752F8FCE780B590B000AF9E
:1017D40007F1180328220021184604F07BF83B1D6A
:1017E40000221A605A609A60DA601A610123BB61B0
:1017F4004FF48033FB6100233B620123BB6202236D
:101804007B634FF48033BB634FF4E013FB6307F156
:101814001803184601F0A6FD0346002B01D000F082
:1018240019F80F237B600223BB600023FB604FF495
:1018340080633B6100237B613B1D0221184602F05B
:1018440013F80346002B01D000F004F800BF403722
:10185400BD4680BD80B400AF72B600BFFEE7000095
:1018640080B485B000AF154B9B69144A43F0010363
:101874009361124B9B6903F00103BB60BB680F4B80
:10188400DB690E4A43F08053D3610C4BDB6903F0F0
:1018940080537B607B680A4B5B68FB60FB6823F0CA
:1018A400E063FB60FB6843F00073FB60044AFB6881
:1018B400536000BF1437BD4680BC7047001002401F
:1018C4000000014080B400AFFEE780B400AFFEE743
:1018D40080B400AFFEE780B400AFFEE780B400AF91
:1018E400FEE780B400AF00BFBD4680BC704780B443
:1018F40000AF00BFBD4680BC704780B400AF00BFDE
:10190400BD4680BC704780B500AF00F00DFE00BF3F
:1019140080BD000080B500AF024801F00BF900BFA4
:1019240080BD00BF9003002080B500AF024803F0E3
:10193400CFFB00BF80BD00BF4C03002080B500AFCB
:10194400024802F01BFC00BF80BD00BFBC020020A7
:1019540080B400AF00BFBD4680BC704780B596B070
:1019640000AF07F1480300221A605A609A60DA60F7
:1019740007F1400300221A605A6007F12403002291
:101984001A605A609A60DA601A615A619A613B1D62
:1019940020220021184603F09DFF504B504A1A6044
:1019A4004E4B00225A604D4B00229A604B4B40F63E
:1019B4000F62DA60494B00221A61484B00225A61D7
:1019C400464B80229A61454802F0E6F80346002B14
:1019D40001D0FFF73FFF4FF48053BB6407F1480386
:1019E40019463E4802F090FD0346002B01D0FFF754
:1019F40031FF3A4802F080F90346002B01D0FFF78B
:101A040029FF00233B6400237B6407F1400319464C
:101A1400324803F0EDF90346002B01D0FFF71AFF1B
:101A240060237B620023BB620023FB6200233B63D1
:101A340000237B630023BB630023FB6307F12403C0
:101A440000221946254802F0A1FC0346002B01D0D0
:101A5400FFF700FF07F12403042219461F4802F090
:101A640095FC0346002B01D0FFF7F4FE07F1240395
:101A740008221946194802F089FC0346002B01D0BC
:101A8400FFF7E8FE07F124030C221946134802F07D
:101A94007DFC0346002B01D0FFF7DCFE00237B60B6
:101AA4000023BB600023FB6000233B6100237B61B8
:101AB4004FF40053BB6100233B623B1D19460748AA
:101AC40003F002FA0346002B01D0FFF7C3FE0348DC
:101AD40000F092FB00BF5837BD4680BD5401002082
:101AE400002C014080B58CB000AF07F10C03242218
:101AF4000021184603F0EEFE3B1D00221A605A60D6
:101B0400214B4FF080421A601F4B00225A601E4B3B
:101B140000229A601C4B4FF6FF72DA601A4B0022C7
:101B24001A61194B00229A610323FB6000233B6175
:101B340001237B610023BB610023FB6100233B6223
:101B440001237B620023BB620023FB6207F10C03C9
:101B540019460D4802F0E2F90346002B01D0FFF7C5
:101B640079FE00237B600023BB603B1D19460648B9
:101B740003F03EF90346002B01D0FFF76BFE00BFD4
:101B84003037BD4680BD00BF9C01002080B58CB0BD
:101B940000AF07F10C0324220021184603F09AFE3B
:101BA4003B1D00221A605A60204B214A1A601F4BC9
:101BB40000225A601D4B00229A601C4B4FF6FF72A4
:101BC400DA601A4B00221A61184B00229A6103232F
:101BD400FB6000233B6101237B610023BB61002385
:101BE400FB6100233B6201237B620023BB62002371
:101BF400FB6207F10C0319460C4802F08FF9034607
:101C0400002B01D0FFF726FE00237B600023BB607E
:101C14003B1D1946054803F0EBF80346002B01D0A1
:101C2400FFF718FE00BF3037BD4680BDE401002039
:101C34000004004080B58CB000AF07F10C032422EF
:101C44000021184603F046FE3B1D00221A605A602C
:101C5400204B214A1A601F4B00225A601D4B002260
:101C64009A601C4B4FF6FF72DA601A4B00221A611D
:101C7400184B00229A610323FB6000233B6101237C
:101C84007B610023BB610023FB6100233B620123D2
:101C94007B620023BB620023FB6207F10C0319463D
:101CA4000C4802F03BF90346002B01D0FFF7D2FDAC
:101CB40000237B600023BB603B1D1946054803F0ED
:101CC40097F80346002B01D0FFF7C4FD00BF30375F
:101CD400BD4680BD2C0200200008004080B58CB0B9
:101CE40000AF07F10C0324220021184603F0F2FD93
:101CF4003B1D00221A605A60204B214A1A601F4B78
:101D040000225A601D4B00229A601C4B4FF6FF7252
:101D1400DA601A4B00221A61184B00229A610323DD
:101D2400FB6000233B6101237B610023BB61002333
:101D3400FB6100233B6201237B620023BB6200231F
:101D4400FB6207F10C0319460C4802F0E7F803465E
:101D5400002B01D0FFF77EFD00237B600023BB60D6
:101D64003B1D1946054803F043F80346002B01D0F8
:101D7400FFF770FD00BF3037BD4680BD7402002000
:101D8400000C004080B582B000AF3B4600221A60D0
:101D94005A60164B164A1A60144B47225A60134B6A
:101DA40000229A60114B0922DA60104B00229A61DA
:101DB4000E4801F0F1FE0346002B01D0FFF74AFD67
:101DC40000233B6000237B603B461946074803F031
:101DD4000FF80346002B01D0FFF73CFD034801F048
:101DE4002BFF00BF0837BD4680BD00BFBC020020EA
:101DF4000014004080B596B000AF07F148030022FC
:101E04001A605A609A60DA6007F1400300221A608F
:101E14005A6007F1240300221A605A609A60DA605B
:101E24001A615A619A613B1D20220021184603F071
:101E340051FD504B504A1A604E4B00225A604D4B94
:101E440000229A604B4B40F60F62DA60494B002245
:101E54001A61484B00225A61464B80229A614548D8
:101E640001F09AFE0346002B01D0FFF7F3FC4FF478
:101E74008053BB6407F1480319463E4802F044FB13
:101E84000346002B01D0FFF7E5FC3A4801F034FF8C
:101E94000346002B01D0FFF7DDFC00233B64002345
:101EA4007B6407F140031946324802F0A1FF034660
:101EB400002B01D0FFF7CEFC60237B620023BB62C2
:101EC4000023FB6200233B6300237B630023BB638B
:101ED4000023FB6307F1240300221946254802F07E
:101EE40055FA0346002B01D0FFF7B4FC07F1240395
:101EF400042219461F4802F049FA0346002B01D078
:101F0400FFF7A8FC07F1240308221946194802F038
:101F14003DFA0346002B01D0FFF79CFC07F1240394
:101F24000C221946134802F031FA0346002B01D063
:101F3400FFF790FC00237B600023BB600023FB6061
:101F440000233B6100237B614FF40053BB610023FA
:101F54003B623B1D1946074802F0B6FF0346002BBF
:101F640001D0FFF777FC034800F046F900BF58376B
:101F7400BD4680BD040300200034014080B586B016
:101F840000AF78607B681B681F4A93420CD11F4BDB
:101F94009B691E4A43F4006393611C4B9B6903F4E1
:101FA40000637B617B692AE07B681B68184A934263
:101FB40014D1164BDB69154A43F02003D361134B4C
:101FC400DB6903F020033B613B69002200213720D9
:101FD40000F0C1FB372000F0DAFB10E07B681B68DF
:101FE4000C4A93420BD1094B9B69084A43F40053B2
:101FF4009361064B9B6903F40053FB60FB6800BFCD
:102004001837BD4680BD00BF002C014000100240BF
:10201400001400400034014080B590B000AF7860F7
:1020240007F12C0300221A605A609A60DA607B6818
:102034001B68B3F1804F4FD1684BDB69674A43F0AB
:102044000103D361654BDB6903F00103BB62BB6A27
:10205400624B9B69614A43F0040393615F4B9B6944
:1020640003F004037B627B6A5C4B9B695B4A43F02D
:1020740008039361594B9B6903F008033B623B6A75
:102084004FF40043FB6200233B6300237B6307F1AF
:102094002C031946524800F089FF0823FB620023F1
:1020A4003B6300237B6307F12C0319464D4800F082
:1020B4007DFF4D4B5B68FB63FB6B23F44073FB6359
:1020C400FB6B43F0E063FB63FB6B43F48073FB63E4
:1020D400454AFB6B53607CE07B681B68434A934230
:1020E40024D13E4BDB693D4A43F00203D3613B4BB1
:1020F400DB6903F00203FB61FB69384B9B69374AD8
:1021040043F004039361354B9B6903F00403BB6103
:10211400BB69C023FB6200233B6300237B6307F19D
:102124002C0319462E4800F041FF52E07B681B68DF
:102134002F4A934224D1294BDB69284A43F00403F4
:10214400D361264BDB6903F004037B617B69234B7A
:102154009B69224A43F008039361204B9B6903F077
:1021640008033B613B69C023FB6200233B630023FC
:102174007B6307F12C0319461A4800F017FF28E087
:102184007B681B681B4A934223D1144BDB69134AB7
:1021940043F00803D361114BDB6903F00803FB60D0
:1021A400FB680E4B9B690D4A43F0040393610B4B90
:1021B4009B6903F00403BB60BB680323FB62002339
:1021C4003B6300237B6307F12C031946044800F0AA
:1021D400EDFE00BF4037BD4680BD00BF0010024089
:1021E40000080140000C01400000014000040040D0
:1021F40000080040000C004080B58AB000AF786051
:1022040007F1140300221A605A609A60DA607B684E
:102214001B68344A934243D1334B9B69324A43F09F
:1022240008039361304B9B6903F008033B613B69EE
:102234002D4B9B692C4A43F0040393612A4B9B6901
:1022440003F00403FB60FB6803237B610223BB618F
:1022540002233B6207F114031946244800F0A6FE4A
:102264004FF410637B610223BB6102233B6207F1DD
:10227400140319461E4800F099FE1E4B5B687B62EE
:102284007B6A23F0C0037B627B6A43F0E0637B627A
:102294007B6A43F040037B62164A7B6A53601DE00D
:1022A4007B681B68144A934218D10F4B9B690E4AF2
:1022B40043F0100393610C4B9B6903F01003BB6064
:1022C400BB684FF470737B610223BB6102233B62E2
:1022D40007F114031946094800F068FE00BF2837C7
:1022E400BD4680BD002C014000100240000C01409E
:1022F400000801400000014000340140001001408A
:1023040080B500AF114B124A1A60104B4FF4E13202
:102314005A600E4B00229A600C4B0022DA600B4B81
:1023240000221A61094B0C225A61084B00229A615F
:10233400064B0022DA61054802F04DFE0346002BED
:1023440001D0FFF787FA00BF80BD00BF4C03002017
:102354000038014080B588B000AF786007F1100301
:1023640000221A605A609A60DA607B681B68334AFC
:1023740093425FD1324B9B69314A43F4804393616A
:102384002F4B9B6903F48043FB60FB682C4B9B69D8
:102394002B4A43F004039361294B9B6903F0040324
:1023A400BB60BB684FF400733B6102237B61032372
:1023B400FB6107F110031946224800F0F7FD4FF4C2
:1023C40080633B6100237B610023BB6107F1100341
:1023D40019461C4800F0EAFD1B4B1C4A1A601A4BB4
:1023E40010225A60184B00229A60174B8022DA6040
:1023F400154B00221A61144B00225A61124B002221
:102404009A61114B0022DA610F4800F0DBF90346B0
:10241400002B01D0FFF71EFA7B680B4A5A630A4A65
:102424007B68536200220021252000F094F92520C6
:1024340000F0ADF900BF2037BD4680BD0038014033
:1024440000100240000801409003002044000240B4
:102454000C480D490D4A002302E0D458C4500433FB
:10246400C4188C42F9D30A4A0A4C002301E01360D1
:102474000432A242FBD3FFF76BFA03F007FAFFF72B
:1024840085F970470000002018000020305900082A
:1024940018000020D8030020FEE7000080B500AF3C
:1024A400084B1B68074A43F010031360032000F035
:1024B40047F90F2000F008F8FFF7D2F90023184677
:1024C40080BD00BF0020024080B582B000AF7860BC
:1024D400124B1A68124B1B7819464FF47A73B3FBEC
:1024E400F1F3B2FBF3F3184600F05FF90346002B57
:1024F40001D001230EE07B680F2B0AD800227968F3
:102504004FF0FF3000F027F9064A7B681360002380
:1025140000E0012318460837BD4680BD0C000020AA
:10252400140000201000002080B400AF054B1B787D
:102534001A46054B1B681344034A136000BFBD468B
:1025440080BC704714000020D403002080B400AF86
:10255400024B1B681846BD4680BC7047D40300205C
:1025640080B584B000AF7860FFF7F0FFB8607B6897
:10257400FB60FB68B3F1FF3F05D00A4B1B781A469A
:10258400FB681344FB6000BFFFF7E0FF0246BB6833
:10259400D31AFA689A42F7D800BF00BF1037BD4675
:1025A40080BD00BF1400002080B485B000AF786007
:1025B4007B6803F00703FB600C4BDB68BB60BA6805
:1025C4004FF6FF031340BB60FB681A02BB6813435A
:1025D40043F0BF6343F40033BB60044ABB68D36079
:1025E40000BF1437BD4680BC704700BF00ED00E05B
:1025F40080B400AF044BDB681B0A03F007031846E2
:10260400BD4680BC704700BF00ED00E080B483B0DD
:1026140000AF0346FB7197F90730002B0BDBFB7906
:1026240003F01F02064997F907305B09012000FAFD
:1026340002F241F8232000BF0C37BD4680BC70472E
:1026440000E100E080B483B000AF03463960FB7161
:1026540097F90730002B0ADB3B68DAB20C4997F98B
:1026640007301201D2B20B4483F800230AE03B681E
:10267400DAB20849FB7903F00F03043B1201D2B22A
:102684000B441A7600BF0C37BD4680BC704700BFB0
:1026940000E100E000ED00E080B489B000AFF86034
:1026A400B9607A60FB6803F00703FB61FB69C3F15F
:1026B4000703042B28BF0423BB61FB690433062BE7
:1026C40002D9FB69033B00E000237B614FF0FF323A
:1026D400BB6902FA03F3DA43BB681A407B699A4088
:1026E4004FF0FF317B6901FA03F3D9437B680B4058
:1026F400134318462437BD4680BC704780B582B06A
:1027040000AF78607B68013BB3F1807F01D3012384
:102714000FE00A4A7B68013B53600F214FF0FF3002
:10272400FFF790FF054B00229A60044B07221A60C2
:10273400002318460837BD4680BD00BF10E000E006
:1027440080B582B000AF78607868FFF72DFF00BFD6
:102754000837BD4680BD80B586B000AF0346B9607A
:102764007A60FB7300237B61FFF742FF78617A682C
:10277400B9687869FFF790FF024697F90F30114660
:102784001846FFF75FFF00BF1837BD4680BD80B510
:1027940082B000AF0346FB7197F907301846FFF784
:1027A40035FF00BF0837BD4680BD80B582B000AF9D
:1027B40078607868FFF7A2FF034618460837BD46DD
:1027C40080BD000080B485B000AF78600023FB605A
:1027D4007B68002B01D1012359E07B681B681A46F2
:1027E4002D4B9A420FD87B681B681A462B4B134417
:1027F4002B4AA2FB03231B099A007B681A647B689B
:10280400284ADA630EE07B681B681A46264B134499
:10281400234AA2FB03231B099A007B681A647B6882
:10282400224ADA637B68022283F821207B681B68D2
:102834001B68FB60FB6823F47F5323F03003FB60C9
:102844007B685A687B689B681A437B68DB681A4319
:102854007B681B691A437B685B691A437B689B69C5
:102864001A437B68DB691343FA681343FB607B6894
:102874001B68FA681A607B6800229A637B680122ED
:1028840083F821207B68002283F820200023184647
:102894001437BD4680BC704707040240F8FFFDBFF3
:1028A400CDCCCCCC00000240F8FBFDBF00040240BC
:1028B40080B485B000AF78600023FB737B6893F825
:1028C4002130022B08D07B6804229A637B680022A3
:1028D40083F82020012320E07B681B681A687B684A
:1028E4001B6822F00E021A607B681B681A687B68FA
:1028F4001B6822F001021A607B681A6C7B68DB6B30
:10290400012101FA02F25A607B68012283F8212036
:102914007B68002283F82020FB7B18461437BD46D1
:1029240080BC704780B584B000AF78600023FB732F
:102934007B6893F82130022B05D07B6804229A63CC
:102944000123FB73D6E07B681B681A687B681B68ED
:1029540022F00E021A607B681B681A687B681B6889
:1029640022F001021A607B681B681A46644B9A4283
:1029740058D97B681B68634A93424FD07B681B68B5
:10298400614A934248D07B681B68604A934240D0B6
:102994007B681B685E4A934238D07B681B685D4A3B
:1029A400934230D07B681B685B4A934228D07B6893
:1029B4001B68534A934220D07B681B68574A934252
:1029C40019D07B681B68564A934212D07B681B68F7
:1029D400544A93420AD07B681B68534A934202D1FB
:1029E4004FF480531BE04FF4803318E04FF48073AE
:1029F40015E0102313E0012311E04FF080730EE083
:102A04004FF480130BE04FF4803308E04FF480530D
:102A140005E04FF4807302E0102300E00123434AF1
:102A2400536057E07B681B68364A93424FD07B68FB
:102A34001B68354A934248D07B681B68334A9342EB
:102A440040D07B681B68324A934238D07B681B684D
:102A5400304A934230D07B681B682F4A934228D077
:102A64007B681B68264A934220D07B681B682B4AEC
:102A7400934219D07B681B68294A934212D07B6821
:102A84001B68284A93420AD07B681B68264A9342F3
:102A940002D14FF480531BE04FF4803318E04FF41D
:102AA400807315E0102313E0012311E04FF08073CD
:102AB4000EE04FF480130BE04FF4803308E04FF442
:102AC400805305E04FF4807302E0102300E00123FB
:102AD400174A53607B68012283F821207B68002217
:102AE40083F820207B685B6B002B03D07B685B6BD7
:102AF40078689847FB7B18461037BD4680BD00BFF9
:102B040080000240080002401C00024030000240E5
:102B140044000240580002406C0002400804024095
:102B24001C040240300402404404024000040240F9
:102B34000000024080B584B000AF78607B68DB6B36
:102B44001B68FB607B681B681B68BB607B681B6C35
:102B540004229A40FB681340002B00F0F180BB680C
:102B640003F00403002B00F0EB807B681B681B68F8
:102B740003F02003002B07D17B681B681A687B686D
:102B84001B6822F004021A607B681B681A465F4BBC
:102B94009A4258D97B681B685D4A93424FD07B6840
:102BA4001B685C4A934248D07B681B685A4A93422C
:102BB40040D07B681B68594A934238D07B681B68B5
:102BC400574A934230D07B681B68564A934228D0B8
:102BD4007B681B684D4A934220D07B681B68524A2D
:102BE400934219D07B681B68504A934212D07B6889
:102BF4001B684F4A93420AD07B681B684D4A934234
:102C040002D14FF480431BE04FF4802318E04FF4CB
:102C1400806315E0402313E0042311E04FF0806348
:102C24000EE04FF480030BE04FF4802308E04FF4F0
:102C3400804305E04FF4806302E0402300E0042376
:102C44003D4A536057E07B681B68314A93424FD03A
:102C54007B681B682F4A934248D07B681B682E4AC6
:102C6400934240D07B681B682C4A934238D07B68DF
:102C74001B682B4A934230D07B681B68294A9342D5
:102C840028D07B681B68214A934220D07B681B684C
:102C9400254A934219D07B681B68244A934212D078
:102CA4007B681B68224A93420AD07B681B68214ACE
:102CB400934202D14FF480431BE04FF4802318E089
:102CC4004FF4806315E0402313E0042311E04FF038
:102CD40080630EE04FF480030BE04FF4802308E0A0
:102CE4004FF4804305E04FF4806302E0402300E0AA
:102CF4000423124A53607B68DB6A002B00F03681A0
:102D04007B68DB6A7868984730E100BF8000024046
:102D1400080002401C00024030000240440002400F
:102D2400580002406C000240080402401C040240A7
:102D34003004024044040240000402400000024007
:102D44007B681B6C02229A40FB681340002B00F046
:102D5400DD80BB6803F00203002B00F0D7807B68A2
:102D64001B681B6803F02003002B0BD17B681B68D6
:102D74001A687B681B6822F00A021A607B680122C9
:102D840083F821207B681B681A467B4B9A4258D9EA
:102D94007B681B68794A93424FD07B681B68784AEA
:102DA400934248D07B681B68764A934240D07B6844
:102DB4001B68754A934238D07B681B68734A9342F8
:102DC40030D07B681B68724A934228D07B681B68AA
:102DD400694A934220D07B681B686E4A934219D09B
:102DE4007B681B686C4A934212D07B681B686B4AF1
:102DF40093420AD07B681B68694A934202D14FF41C
:102E040000531BE04FF4003318E04FF4007315E057
:102E1400202313E0022311E04FF000730EE04FF47F
:102E240000130BE04FF4003308E04FF4005305E0C7
:102E34004FF4007302E0202300E00223594A536058
:102E440057E07B681B684D4A93424FD07B681B68F0
:102E54004B4A934248D07B681B684A4A934240D00D
:102E64007B681B68484A934238D07B681B68474A92
:102E7400934230D07B681B68454A934228D07B68D4
:102E84001B683D4A934220D07B681B68414A9342A9
:102E940019D07B681B68404A934212D07B681B6838
:102EA4003E4A93420AD07B681B683D4A934202D152
:102EB4004FF400531BE04FF4003318E04FF4007359
:102EC40015E0202313E0022311E04FF000730EE01D
:102ED4004FF400130BE04FF4003308E04FF40053B9
:102EE40005E04FF4007302E0202300E002232E4AA1
:102EF40053607B68002283F820207B689B6A002B48
:102F040034D07B689B6A786898472FE07B681B6C99
:102F140008229A40FB681340002B28D0BB6803F0BA
:102F24000803002B23D07B681B681A687B681B6826
:102F340022F00E021A607B681A6C7B68DB6B01213D
:102F440001FA02F25A607B6801229A637B680122CB
:102F540083F821207B68002283F820207B681B6B88
:102F6400002B04D07B681B6B7868984700BF00BFB8
:102F74001037BD4680BD00BF8000024008000240FB
:102F84001C0002403000024044000240580002404D
:102F94006C000240080402401C0402403004024059
:102FA40044040240000402400000024080B48BB09C
:102FB40000AF7860396000237B6200233B6279E1D3
:102FC40001227B6A02FA03F3FB613B681B68FA691E
:102FD4001340BB61BA69FB699A4240F068813B685F
:102FE4005B68964A93425ED0944A934275D8944A59
:102FF400934258D0924A93426FD8924A934252D005
:10300400904A934269D8904A93424CD08E4A934254
:1030140063D88E4A934246D08C4A93425DD8122B91
:103024002AD8122B59D801A252F823F0AB30000849
:103034008530000897300008D9300008DF300008D8
:10304400DF300008DF300008DF300008DF30000820
:10305400DF300008DF300008DF300008DF30000810
:10306400DF300008DF300008DF300008DF30000800
:103074008D300008A1300008754A934213D02CE02B
:103084003B68DB683B6229E03B68DB6804333B62F6
:1030940024E03B68DB6808333B621FE03B68DB6885
:1030A4000C333B621AE03B689B68002B02D104237B
:1030B4003B6213E03B689B68012B05D108233B620C
:1030C4007B68FA691A6109E008233B627B68FA6944
:1030D4005A6103E000233B6200E000BFBB69FF2BA1
:1030E40001D87B6801E07B6804337B61BB69FF2BFB
:1030F40002D87B6A9B0002E07B6A083B9B003B6131
:103104007B691A680F213B6901FA03F3DB431A4018
:10311400396A3B6901FA03F31A437B691A603B6815
:103124005B6803F08053002B00F0C180494B9B691E
:10313400484A43F001039361464B9B6903F0010342
:10314400BB60BB68444A7B6A9B08023352F8233055
:10315400FB607B6A03F003039B000F2202FA03F374
:10316400DB43FA681340FB607B683C4A93421FD000
:103174007B683B4A934219D07B683A4A934213D006
:103184007B68394A93420DD07B68384A934207D012
:103194007B68374A934201D105230AE0062308E0FD
:1031A400042306E0032304E0022302E0012300E0F9
:1031B40000237A6A02F0030292009340FA681343F0
:1031C400FB6025497B6A9B080233FA6841F8232097
:1031D4003B685B6803F48033002B06D0254B1A68E8
:1031E4002449BB6913430B6006E0224B1A68BB6990
:1031F400DB43204913400B603B685B6803F40033F6
:10320400002B06D01B4B5A681A49BB6913434B6009
:1032140006E0184B5A68BB69DB43164913404B6000
:103224003B685B6803F48013002B25D0114B9A682C
:103234001049BB6913438B6025E000BF00003210C6
:1032440000003110000022100000211000001210B4
:10325400000011100010024000000140000801406D
:10326400000C01400010014000140140001801400E
:10327400001C014000040140154B9A68BB69DB4304
:10328400134913408B603B685B6803F40013002B05
:1032940006D00F4BDA680E49BB691343CB6006E0D6
:1032A4000B4BDA68BB69DB4309491340CB607B6A8B
:1032B40001337B623B681A687B6A22FA03F3002BB2
:1032C4007FF47EAE00BF00BF2C37BD4680BC704784
:1032D4000004014080B485B000AF78600B467B8069
:1032E4007B689A687B881340002B02D00123FB7310
:1032F40001E00023FB73FB7B18461437BD4680BCFA
:10330400704780B483B000AF78600B467B8013466F
:103314007B707B78002B03D07A887B681A6103E08A
:103324007B881A047B681A6100BF0C37BD4680BCD9
:10333400704780B485B000AF78600B467B807B68B3
:10334400DB68FB607A88FB6813401A04FB68D94386
:103354007B880B401A437B681A6100BF1437BD4653
:1033640080BC704780B586B000AF78607B68002B66
:1033740001D1012372E27B681B6803F00103002B77
:1033840000F08780924B5B6803F00C03042B0CD095
:103394008F4B5B6803F00C03082B12D18C4B5B68DA
:1033A40003F48033B3F5803F0BD1894B1B6803F4DE
:1033B4000033002B6CD07B685B68002B68D1012341
:1033C4004CE27B685B68B3F5803F06D1804B1B6899
:1033D4007F4A43F4803313602EE07B685B68002BE4
:1033E4000CD17B4B1B687A4A23F480331360784BEF
:1033F4001B68774A23F4802313601DE07B685B68B5
:10340400B3F5A02F0CD1724B1B68714A43F480238F
:1034140013606F4B1B686E4A43F4803313600BE0F8
:103424006B4B1B686A4A23F480331360684B1B6838
:10343400674A23F4802313607B685B68002B13D0F6
:10344400FFF784F8386108E0FFF780F802463B692B
:10345400D31A642B01D9032300E25D4B1B6803F4E8
:103464000033002BF0D014E0FFF770F8386108E067
:10347400FFF76CF802463B69D31A642B01D9032386
:10348400ECE1534B1B6803F40033002BF0D100E054
:1034940000BF7B681B6803F00203002B63D04C4B16
:1034A4005B6803F00C03002B0BD0494B5B6803F003
:1034B4000C03082B1CD1464B5B6803F48033002BB0
:1034C40016D1434B1B6803F00203002B05D07B6825
:1034D4001B69012B01D00123C0E13D4B1B6823F084
:1034E400F8027B685B69DB00394913430B603AE0FF
:1034F4007B681B69002B20D0364B01221A60FFF732
:1035040025F8386108E0FFF721F802463B69D31A31
:10351400022B01D90323A1E12D4B1B6803F0020305
:10352400002BF0D02A4B1B6823F0F8027B685B6900
:10353400DB00274913430B6015E0264B00221A6079
:10354400FFF704F8386108E0FFF700F802463B692A
:10355400D31A022B01D9032380E11D4B1B6803F00E
:103564000203002BF0D17B681B6803F00803002BD7
:103574003AD07B689B69002B19D0174B01221A6043
:10358400FEF7E4FF386108E0FEF7E0FF02463B691E
:10359400D31A022B01D9032360E10D4B5B6A03F0BC
:1035A4000203002BF0D0012000F0D8FA1CE00A4BF3
:1035B40000221A60FEF7CAFF38610FE0FEF7C6FF6B
:1035C40002463B69D31A022B08D9032346E100BF04
:1035D400001002400000424280044242924B5B6A67
:1035E40003F00203002BE9D17B681B6803F004039A
:1035F400002B00F0A6800023FB758B4BDB6903F0E6
:103604008053002B0DD1884BDB69874A43F08053EC
:10361400D361854BDB6903F08053BB60BB68012336
:10362400FB75824B1B6803F48073002B18D17F4B0E
:103634001B687E4A43F480731360FEF787FF38618A
:1036440008E0FEF783FF02463B69D31A642B01D9D5
:10365400032303E1754B1B6803F48073002BF0D044
:103664007B68DB68012B06D16F4B1B6A6E4A43F003
:10367400010313622DE07B68DB68002B0CD16A4BDD
:103684001B6A694A23F001031362674B1B6A664A8B
:1036940023F0040313621CE07B68DB68052B0CD168
:1036A400614B1B6A604A43F0040313625E4B1B6A5E
:1036B4005D4A43F0010313620BE05B4B1B6A5A4AF9
:1036C40023F001031362584B1B6A574A23F0040387
:1036D40013627B68DB68002B15D0FEF737FF386177
:1036E4000AE0FEF733FF02463B69D31A41F28832FF
:1036F400934201D90323B1E04B4B1B6A03F002034D
:10370400002BEED014E0FEF721FF38610AE0FEF74B
:103714001DFF02463B69D31A41F28832934201D914
:1037240003239BE0404B1B6A03F00203002BEED102
:10373400FB7D012B05D13C4BDB693B4A23F08053D5
:10374400D3617B68DB69002B00F08780364B5B68B4
:1037540003F00C03082B61D07B68DB69022B46D194
:10376400334B00221A60FEF7F1FE386108E0FEF7E1
:10377400EDFE02463B69D31A022B01D903236DE007
:10378400294B1B6803F00073002BF0D17B681B6A84
:10379400B3F5803F08D1244B5B6823F400327B6887
:1037A4009B68214913434B601F4B5B6823F47412DD
:1037B4007B68196A7B685B6A0B431B4913434B6044
:1037C4001B4B01221A60FEF7C1FE386108E0FEF7C8
:1037D400BDFE02463B69D31A022B01D903233DE007
:1037E400114B1B6803F00073002BF0D035E0104B35
:1037F40000221A60FEF7AAFE386108E0FEF7A6FE72
:1038040002463B69D31A022B01D9032326E0064B57
:103814001B6803F00073002BF0D11EE07B68DB69AA
:10382400012B07D1012319E0001002400070004071
:10383400600042420B4B5B68FB60FB6803F4803220
:103844007B681B6A9A4206D1FB6803F470127B689A
:103854005B6A9A4201D0012300E00023184618371E
:10386400BD4680BD0010024080B584B000AF7860D2
:1038740039607B68002B01D10123D0E06A4B1B68BF
:1038840003F007033A689A4210D9674B1B6823F088
:10389400070265493B6813430B60634B1B6803F0E5
:1038A40007033A689A4201D00123B8E07B681B6899
:1038B40003F00203002B20D07B681B6803F0040391
:1038C400002B05D0594B5B68584A43F4E0635360BE
:1038D4007B681B6803F00803002B05D0534B5B681F
:1038E400524A43F460535360504B5B6823F0F00238
:1038F4007B689B684D4913434B607B681B6803F0EE
:103904000103002B40D07B685B68012B07D1474B38
:103914001B6803F40033002B15D101237FE07B687F
:103924005B68022B07D1414B1B6803F00073002B2B
:1039340009D1012373E03D4B1B6803F00203002B04
:1039440001D101236BE0394B5B6823F003027B68F0
:103954005B68364913434B60FEF7F8FDF8600AE0F4
:10396400FEF7F4FD0246FB68D31A41F28832934213
:1039740001D9032353E02D4B5B6803F00C027B68F1
:103984005B689B009A42EBD1274B1B6803F007034B
:103994003A689A4210D2244B1B6823F0070222494A
:1039A4003B6813430B60204B1B6803F007033A6822
:1039B4009A4201D0012332E07B681B6803F00403C0
:1039C400002B08D0194B5B6823F4E0627B68DB684A
:1039D400164913434B607B681B6803F00803002BF4
:1039E40009D0124B5B6823F460527B681B69DB00CF
:1039F4000E4913434B6000F021F802460B4B5B6801
:103A04001B0903F00F030A49CB5C22FA03F3094AAA
:103A14001360094B1B681846FEF756FD0023184631
:103A24001037BD4680BD00BF002002400010024098
:103A3400105900080C0000201000002090B48AB037
:103A440000AF294B3C1D0FCB84E80F0040F201234B
:103A54003B800023FB610023BB6100237B620023C6
:103A64007B6100233B62214B5B68FB61FB6903F0D4
:103A74000C03042B02D0082B03D02BE01C4B3B621D
:103A84002BE0FB699B0C03F00F0328333B4413F832
:103A9400243C7B61FB6903F48033002B12D0134B6D
:103AA4005B685B0C03F0010328333B4413F8283CA8
:103AB400BB617B690E4A03FB02F2BB69B2FBF3F301
:103AC4007B6204E07B690B4A02FB03F37B627B6A43
:103AD4003B6202E0064B3B6200BF3B6A1846283754
:103AE400BD4690BC704700BF00590008001002405A
:103AF40000127A0000093D0080B400AF024B1B683D
:103B04001846BD4680BC70470C00002080B500AF4D
:103B1400FFF7F2FF0246054B5B681B0A03F007033D
:103B24000349CB5C22FA03F3184680BD001002401F
:103B34002059000880B500AFFFF7DEFF0246054BB1
:103B44005B68DB0A03F007030349CB5C22FA03F347
:103B5400184680BD001002402059000880B485B08A
:103B640000AF78600A4B1B680A4AA2FB03235B0A76
:103B74007A6802FB03F3FB6000BFFB685A1EFA601D
:103B8400002BF9D100BF00BF1437BD4680BC70477D
:103B94000C000020D34D621080B582B000AF786075
:103BA4007B68002B01D1012341E07B6893F83D3011
:103BB400DBB2002B06D17B68002283F83C207868B6
:103BC400FEF7DCF97B68022283F83D207B681A68E3
:103BD4007B6804331946104600F07EFD7B680122A1
:103BE40083F846207B68012283F83E207B6801220B
:103BF40083F83F207B68012283F840207B68012200
:103C040083F841207B68012283F842207B680122EB
:103C140083F843207B68012283F844207B680122D7
:103C240083F845207B68012283F83D200023184651
:103C34000837BD4680BD000080B485B000AF786011
:103C44007B6893F83D30DBB2012B01D0012344E0C3
:103C54007B68022283F83D207B681B68DA687B68F6
:103C64001B6842F00102DA607B681B681D4A9342BC
:103C740018D07B681B681C4A934213D07B681B686E
:103C8400B3F1804F0ED07B681B68184A934209D069
:103C94007B681B68164A934204D07B681B68154AEC
:103CA400934211D17B681B689B6803F00703FB6098
:103CB400FB68062B10D07B681B681A687B681B683E
:103CC40042F001021A6007E07B681B681A687B688F
:103CD4001B6842F001021A60002318461437BD46DF
:103CE40080BC7047002C01400034014000040040B7
:103CF40000080040000C004080B582B000AF78603E
:103D04007B68002B01D1012341E07B6893F83D30AF
:103D1400DBB2002B06D17B68002283F83C20786854
:103D240000F039F87B68022283F83D207B681A682A
:103D34007B6804331946104600F0CEFC7B680122F0
:103D440083F846207B68012283F83E207B680122A9
:103D540083F83F207B68012283F840207B6801229E
:103D640083F841207B68012283F842207B6801228A
:103D740083F843207B68012283F844207B68012276
:103D840083F845207B68012283F83D2000231846F0
:103D94000837BD4680BD80B483B000AF786000BFF3
:103DA4000C37BD4680BC704780B584B000AF7860E6
:103DB40039603B68002B09D17B6893F83E30DBB255
:103DC400012B14BF01230023DBB222E03B68042B48
:103DD40009D17B6893F83F30DBB2012B14BF012378
:103DE4000023DBB215E03B68082B09D17B6893F80C
:103DF4004030DBB2012B14BF01230023DBB208E007
:103E04007B6893F84130DBB2012B14BF01230023FC
:103E1400DBB2002B01D0012372E03B68002B04D1FC
:103E24007B68022283F83E2013E03B68042B04D114
:103E34007B68022283F83F200BE03B68082B04D107
:103E44007B68022283F8402003E07B68022283F827
:103E540041207B681B6801223968184600F0F8FE8F
:103E64007B681B68284A934204D07B681B68274AF6
:103E7400934201D1012300E00023002B07D07B688B
:103E84001B685A6C7B681B6842F400425A647B6866
:103E94001B681D4A934218D07B681B681B4A9342D7
:103EA40013D07B681B68B3F1804F0ED07B681B680E
:103EB400174A934209D07B681B68164A934204D080
:103EC4007B681B68144A934211D17B681B689B680A
:103ED40003F00703FB60FB68062B10D07B681B68AC
:103EE4001A687B681B6842F001021A6007E07B686D
:103EF4001B681A687B681B6842F001021A60002381
:103F040018461037BD4680BD002C014000340140E6
:103F14000004004000080040000C004080B586B05A
:103F240000AF786039607B68002B01D1012393E0F6
:103F34007B6893F83D30DBB2002B06D17B6800220E
:103F440083F83C207868FEF767F87B68022283F8E0
:103F54003D207B681B689B687A68126823F4804361
:103F640023F0070393607B681A687B68043319465F
:103F7400104600F0B1FB7B681B689B687B617B6823
:103F84001B689B693B617B681B681B6AFB603B6821
:103F94001B687A6913437B613B6923F4407323F004
:103FA40003033B613B689A683B689B691B021343AC
:103FB4003A6913433B613B6923F4406323F00C03E8
:103FC4003B613B6923F4704323F0F0033B613B689E
:103FD400DA683B68DB691B0213433A6913433B61AC
:103FE4003B681B691A013B681B6A1B0313433A694C
:103FF40013433B61FB6823F02203FB603B685A6870
:104004003B685B691B011343FA681343FB607B68DD
:104014001B687A699A607B681B683A699A617B6855
:104024001B68FA681A627B68012283F846207B6861
:10403400012283F83E207B68012283F83F207B68BD
:10404400012283F842207B68012283F843207B68A5
:10405400012283F83D20002318461837BD4680BD51
:1040640080B584B000AF786039607B6893F83E30E7
:10407400FB737B6893F83F30BB737B6893F84230E3
:104084007B737B6893F843303B733B68002B10D100
:10409400FB7B012B02D17B7B012B01D0012369E047
:1040A4007B68022283F83E207B68022283F8422048
:1040B40031E03B68042B10D1BB7B012B02D13B7B4D
:1040C400012B01D0012355E07B68022283F83F20B5
:1040D4007B68022283F843201DE0FB7B012B08D17F
:1040E400BB7B012B05D17B7B012B02D13B7B012BBD
:1040F40001D001233EE07B68022283F83E207B68E6
:10410400022283F83F207B68022283F842207B68E6
:10411400022283F843203B68002B03D03B68042B26
:1041240008D00FE07B681B6801220021184600F0CC
:104134008FFD16E07B681B6801220421184600F0FD
:1041440087FD0EE07B681B6801220021184600F001
:104154007FFD7B681B6801220421184600F078FD6E
:1041640000BF7B681B681A687B681B6842F0010209
:104174001A60002318461037BD4680BD80B582B052
:1041840000AF78607B681B681B6903F00203022B95
:1041940022D17B681B68DB6803F00203022B1BD16E
:1041A4007B681B686FF002021A617B6801221A7730
:1041B4007B681B689B6903F00303002B03D07868BA
:1041C40000F06FFA05E0786800F062FA786800F0B1
:1041D40071FA7B6800221A777B681B681B6903F0FD
:1041E4000403042B22D17B681B68DB6803F00403FF
:1041F400042B1BD17B681B686FF004021A617B6877
:1042040002221A777B681B689B6903F44073002BB6
:1042140003D0786800F045FA05E0786800F038FAD1
:10422400786800F047FA7B6800221A777B681B687D
:104234001B6903F00803082B22D17B681B68DB6829
:1042440003F00803082B1BD17B681B686FF008027E
:104254001A617B6804221A777B681B68DB6903F0A8
:104264000303002B03D0786800F01BFA05E078689C
:1042740000F00EFA786800F01DFA7B6800221A77C5
:104284007B681B681B6903F01003102B22D17B6829
:104294001B68DB6803F01003102B1BD17B681B68C1
:1042A4006FF010021A617B6808221A777B681B681A
:1042B400DB6903F44073002B03D0786800F0F1F954
:1042C40005E0786800F0E4F9786800F0F3F97B68B9
:1042D40000221A777B681B681B6903F00103012B1A
:1042E4000ED17B681B68DB6803F00103012B07D147
:1042F4007B681B686FF001021A617868FDF742F968
:104304007B681B681B6903F08003802B0ED17B68DC
:104314001B68DB6803F08003802B07D17B681B6874
:104324006FF080021A61786800F028FE7B681B68D1
:104334001B6903F04003402B0ED17B681B68DB68CC
:1043440003F04003402B07D17B681B686FF04002E9
:104354001A61786800F0B7F97B681B681B6903F081
:104364002003202B0ED17B681B68DB6803F020033D
:10437400202B07D17B681B686FF020021A617868D4
:1043840000F0F3FD00BF0837BD4680BD80B584B0A2
:1043940000AFF860B9607A60FB6893F83C30012B99
:1043A40001D10223ACE0FB68012283F83C207B6846
:1043B4000C2B00F29F8001A252F823F0F543000871
:1043C400F9440008F9440008F94400083544000899
:1043D400F9440008F9440008F94400087744000847
:1043E400F9440008F9440008F9440008B7440008F7
:1043F400FB681B68B968184600F0E8F9FB681B689D
:104404009A69FB681B6842F008029A61FB681B68A2
:104414009A69FB681B6822F004029A61FB681B68B6
:104424009969BB681A69FB681B680A439A6162E070
:10443400FB681B68B968184600F038FAFB681B680B
:104444009A69FB681B6842F400629A61FB681B6806
:104454009A69FB681B6822F480629A61FB681B6896
:104464009969BB681B691A02FB681B680A439A6155
:1044740041E0FB681B68B968184600F08BFAFB68DA
:104484001B68DA69FB681B6842F00802DA61FB68A2
:104494001B68DA69FB681B6822F00402DA61FB68B6
:1044A4001B68D969BB681A69FB681B680A43DA612F
:1044B40021E0FB681B68B968184600F0DFFAFB6866
:1044C4001B68DA69FB681B6842F40062DA61FB6806
:1044D4001B68DA69FB681B6822F48062DA61FB6896
:1044E4001B68D969BB681B691A02FB681B680A430D
:1044F400DA6100E000BFFB68002283F83C2000235F
:1045040018461037BD4680BD80B584B000AF7860D2
:1045140039607B6893F83C30012B01D10223B3E06E
:104524007B68012283F83C207B68022283F83D20CB
:104534007B681B689B68FB60FB6823F07703FB6068
:10454400FB6823F47F43FB607B681B68FA689A600E
:104554003B681B68B3F5005F3ED0B3F5005F00F223
:104564008780B3F5805F00F08580B3F5805F7FD8E6
:10457400702B1AD0702B7BD8602B50D0602B77D83F
:10458400502B3CD0502B73D8402B58D0402B6FD895
:10459400302B64D0302B6BD8202B60D0202B67D8E5
:1045A400002B5CD0102B5AD062E07B6818683B6803
:1045B40099683B685A683B68DB6800F02AFB7B68B3
:1045C4001B689B68FB60FB6843F07703FB607B68B8
:1045D4001B68FA689A604EE07B6818683B689968C3
:1045E4003B685A683B68DB6800F013FB7B681B6818
:1045F4009A687B681B6842F480429A603BE07B685F
:1046040018683B6859683B68DB681A4600F08AFA08
:104614007B681B685021184600F0E1FA2BE07B68A8
:1046240018683B6859683B68DB681A4600F0A8FACA
:104634007B681B686021184600F0D1FA1BE07B6898
:1046440018683B6859683B68DB681A4600F06AFAE8
:104654007B681B684021184600F0C1FA0BE07B68B8
:104664001A683B681B681946104600F0B8FA02E065
:1046740000BF00E000BF7B68012283F83D207B6817
:10468400002283F83C20002318461037BD4680BD25
:1046940080B483B000AF786000BF0C37BD4680BCE7
:1046A400704780B483B000AF786000BF0C37BD465C
:1046B40080BC704780B483B000AF786000BF0C3713
:1046C400BD4680BC704780B483B000AF786000BF43
:1046D4000C37BD4680BC704780B485B000AF7860AD
:1046E40039607B681B68FB607B68334A934213D054
:1046F4007B68324A93420FD07B68B3F1804F0BD072
:104704007B682F4A934207D07B682E4A934203D09A
:104714007B682D4A934208D1FB6823F07003FB6049
:104724003B685B68FA681343FB607B68224A9342E8
:1047340013D07B68214A93420FD07B68B3F1804F3A
:104744000BD07B681E4A934207D07B681D4A934274
:1047540003D07B681C4A934208D1FB6823F440735E
:10476400FB603B68DB68FA681343FB60FB6823F07B
:1047740080023B685B691343FB607B68FA681A60DC
:104784003B689A687B68DA623B681A687B689A625D
:104794007B68094A934203D07B68084A934203D159
:1047A4003B681A697B681A637B6801225A6100BFFF
:1047B4001437BD4680BC7047002C014000340140D2
:1047C4000004004000080040000C004080B487B0A2
:1047D40000AF786039607B681B6A23F001027B6854
:1047E4001A627B681B6A7B617B685B683B617B68E0
:1047F4009B69FB60FB6823F07003FB60FB6823F09C
:104804000303FB603B681B68FA681343FB607B6926
:1048140023F002037B613B689B687A6913437B61E5
:104824007B68204A934203D07B681F4A93420CD191
:104834007B6923F008037B613B68DB687A69134377
:104844007B617B6923F004037B617B68154A934297
:1048540003D07B68144A934211D13B6923F48073DB
:104864003B613B6923F400733B613B685B693A69D4
:1048740013433B613B689B693A6913433B617B6823
:104884003A695A607B68FA689A613B685A687B683F
:104894005A637B687A691A6200BF1C37BD4680BCC4
:1048A400704700BF002C01400034014080B487B041
:1048B40000AF786039607B681B6A23F010027B6864
:1048C4001A627B681B6A7B617B685B683B617B68FF
:1048D4009B69FB60FB6823F4E043FB60FB6823F403
:1048E4004073FB603B681B681B02FA681343FB6060
:1048F4007B6923F020037B613B689B681B017A6919
:1049040013437B617B68214A934203D07B68204A2E
:1049140093420DD17B6923F080037B613B68DB68A4
:104924001B017A6913437B617B6923F040037B613C
:104934007B68164A934203D07B68154A934213D18D
:104944003B6923F480633B613B6923F400633B616F
:104954003B685B699B003A6913433B613B689B6915
:104964009B003A6913433B617B683A695A607B68F0
:10497400FA689A613B685A687B689A637B687A69CB
:104984001A6200BF1C37BD4680BC7047002C014032
:104994000034014080B487B000AF786039607B6830
:1049A4001B6A23F480727B681A627B681B6A7B61D2
:1049B4007B685B683B617B68DB69FB60FB6823F0B9
:1049C4007003FB60FB6823F00303FB603B681B6818
:1049D400FA681343FB607B6923F400737B613B68D3
:1049E4009B681B027A6913437B617B68214A93426B
:1049F40003D07B68204A93420DD17B6923F4006382
:104A04007B613B68DB681B027A6913437B617B69CA
:104A140023F480637B617B68164A934203D07B68EE
:104A2400154A934213D13B6923F480533B613B699C
:104A340023F400533B613B685B691B013A691343F0
:104A44003B613B689B691B013A6913433B617B688B
:104A54003A695A607B68FA68DA613B685A687B682D
:104A6400DA637B687A691A6200BF1C37BD4680BC72
:104A7400704700BF002C01400034014080B487B06F
:104A840000AF786039607B681B6A23F480527B68CE
:104A94001A627B681B6A3B617B685B687B617B682D
:104AA400DB69FB60FB6823F4E043FB60FB6823F4F1
:104AB4004073FB603B681B681B02FA681343FB608E
:104AC4003B6923F400533B613B689B681B033A69D1
:104AD40013433B617B68114A934203D07B68104ABD
:104AE400934209D17B6923F480437B613B685B6912
:104AF4009B017A6913437B617B687A695A607B689E
:104B0400FA68DA613B685A687B681A647B683A69B8
:104B14001A6200BF1C37BD4680BC7047002C0140A0
:104B24000034014080B487B000AFF860B9607A60A7
:104B3400FB681B6A7B61FB681B6A23F00102FB684C
:104B44001A62FB689B693B613B6923F0F0033B619C
:104B54007B681B013A6913433B617B6923F00A03B9
:104B64007B617A69BB6813437B61FB683A699A612C
:104B7400FB687A691A6200BF1C37BD4680BC704767
:104B840080B487B000AFF860B9607A60FB681B6AD4
:104B940023F01002FB681A62FB689B697B61FB6867
:104BA4001B6A3B617B6923F470437B617B681B0355
:104BB4007A6913437B613B6923F0A0033B61BB68C3
:104BC4001B013A6913433B61FB687A699A61FB688C
:104BD4003A691A6200BF1C37BD4680BC704780B476
:104BE40085B000AF786039607B689B68FB60FB68C8
:104BF40023F07003FB603A68FB68134343F0070338
:104C0400FB607B68FA689A6000BF1437BD4680BCBD
:104C1400704780B487B000AFF860B9607A603B60D9
:104C2400FB689B687B617B6923F47F437B613B6802
:104C34001A027B681A43BB6813437A6913437B6186
:104C4400FB687A699A6000BF1C37BD4680BC704718
:104C540080B487B000AFF860B9607A60BB6803F0D5
:104C64001F03012202FA03F37B61FB681A6A7B6962
:104C7400DB431A40FB681A62FB681A6ABB6803F0DC
:104C84001F03796801FA03F31A43FB681A6200BF31
:104C94001C37BD4680BC704780B584B000AF7860D7
:104CA40039603B68002B09D17B6893F84230DBB252
:104CB400012B14BF01230023DBB222E03B68042B49
:104CC40009D17B6893F84330DBB2012B14BF012375
:104CD4000023DBB215E03B68082B09D17B6893F80D
:104CE4004430DBB2012B14BF01230023DBB208E004
:104CF4007B6893F84530DBB2012B14BF01230023FA
:104D0400DBB2002B01D0012363E03B68002B04D10C
:104D14007B68022283F8422013E03B68042B04D111
:104D24007B68022283F843200BE03B68082B04D104
:104D34007B68022283F8442003E07B68022283F824
:104D440045207B681B6804223968184600F01FF967
:104D54007B681B685A6C7B681B6842F400425A6487
:104D64007B681B681D4A934218D07B681B681C4AE9
:104D7400934213D07B681B68B3F1804F0ED07B68DD
:104D84001B68184A934209D07B681B68164A9342F1
:104D940004D07B681B68154A934211D17B681B6859
:104DA4009B6803F00703FB60FB68062B10D07B684D
:104DB4001B681A687B681B6842F001021A6007E0EE
:104DC4007B681B681A687B681B6842F001021A60E2
:104DD400002318461037BD4680BD00BF002C01409B
:104DE400003401400004004000080040000C004072
:104DF40080B485B000AF786039607B6893F83C304C
:104E0400012B01D1022350E07B68012283F83C206E
:104E14007B68022283F83D207B681B685B68FB602B
:104E24007B681B689B68BB60FB6823F07003FB60B6
:104E34003B681B68FA681343FB607B681B68FA686D
:104E44005A607B681B681B4A934218D07B681B68B6
:104E5400194A934213D07B681B68B3F1804F0ED07C
:104E64007B681B68154A934209D07B681B68144A07
:104E7400934204D07B681B68124A93420CD1BB68EE
:104E840023F08003BB603B685B68BA681343BB6074
:104E94007B681B68BA689A607B68012283F83D20AE
:104EA4007B68002283F83C20002318461437BD4653
:104EB40080BC7047002C01400034014000040040D5
:104EC40000080040000C004080B485B000AF78605A
:104ED40039600023FB607B6893F83C30012B01D1DF
:104EE40002233DE07B68012283F83C20FB6823F029
:104EF400FF023B68DB681343FB60FB6823F44072EA
:104F04003B689B681343FB60FB6823F480623B6847
:104F14005B681343FB60FB6823F400623B681B6817
:104F24001343FB60FB6823F480523B681B69134303
:104F3400FB60FB6823F400523B685B691343FB602E
:104F4400FB6823F480423B68DB691343FB607B68A6
:104F54001B68FA685A647B68002283F83C200023AB
:104F640018461437BD4680BC704780B483B000AF88
:104F7400786000BF0C37BD4680BC704780B483B0F6
:104F840000AF786000BF0C37BD4680BC704780B46A
:104F940087B000AFF860B9607A60BB6803F01F03A4
:104FA400042202FA03F37B61FB681A6A7B69DB4320
:104FB4001A40FB681A62FB681A6ABB6803F01F0395
:104FC400796801FA03F31A43FB681A6200BF1C37BD
:104FD400BD4680BC704780B582B000AF78607B6806
:104FE400002B01D101233FE07B6893F83D30DBB215
:104FF400002B06D17B68002283F83C207868FDF7FB
:10500400A9F97B68242283F83D207B681B68DA6851
:105014007B681B6822F40052DA60786800F0A8FB11
:105024007B681B681A697B681B6822F490421A61CA
:105034007B681B685A697B681B6822F02A025A61E4
:105044007B681B68DA687B681B6842F40052DA608C
:105054007B6800221A647B68202283F83D207B68E9
:10506400202283F83E20002318460837BD4680BD21
:1050740080B584B000AFF860B9601346FB80FB686C
:1050840093F83E30DBB2202B1DD1BB68002B02D03D
:10509400FB88002B01D1012316E0FB6893F83C3018
:1050A400012B01D102230FE0FB68012283F83C208D
:1050B400FB6800221A63FB881A46B968F86800F096
:1050C400CEF9034600E0022318461037BD4680BDE2
:1050D40080B58AB000AF78607B681B681B687B6210
:1050E4007B681B68DB683B627B681B685B69FB61F0
:1050F4000023BB6100237B617B6A03F00F03BB6168
:10510400BB69002B0DD17B6A03F02003002B08D070
:105114003B6A03F02003002B03D0786800F07FFA89
:105124007BE1BB69002B00F0B180FB6903F0010354
:10513400002B05D13B6A03F49073002B00F0A6808A
:105144007B6A03F00103002B0AD03B6A03F48073EB
:10515400002B05D07B681B6C43F001027B681A644A
:105164007B6A03F00403002B0AD0FB6903F00103FC
:10517400002B05D07B681B6C43F002027B681A6429
:105184007B6A03F00203002B0AD0FB6903F00103DE
:10519400002B05D07B681B6C43F004027B681A6407
:1051A4007B6A03F00803002B0FD03B6A03F0200353
:1051B400002B04D1FB6903F00103002B05D07B68AD
:1051C4001B6C43F008027B681A647B681B6C002B21
:1051D40000F01E817B6A03F02003002B07D03B6A9A
:1051E40003F02003002B02D0786800F018FA7B68E3
:1051F4001B685B6903F04003002B14BF01230023E9
:10520400DBB27B617B681B6C03F00803002B02D1CB
:105214007B69002B31D0786800F05AF97B681B68F1
:105224005B6903F04003002B23D07B681B685A6939
:105234007B681B6822F040025A617B689B6B002BE1
:1052440013D07B689B6B764A5A637B689B6B1846CA
:10525400FDF768FB0346002B16D07B689B6B5B6BEA
:105264007A68926B104698470EE0786800F0E3F88D
:105274000AE0786800F0DFF806E0786800F0DBF810
:105284007B6800221A64C3E000BFC1E07B681B6B2B
:10529400012B40F0A1807B6A03F01003002B00F087
:1052A4009B803B6A03F01003002B00F095800023E1
:1052B400FB607B681B681B68FB607B681B685B6822
:1052C400FB60FB687B681B685B6903F04003002B91
:1052D4004ED07B689B6B1B685B683B823B8A002BD0
:1052E40000F098807B689B8D3A8A9A4280F0928085
:1052F4007B683A8ADA857B689B6B9B69202B2BD071
:105304007B681B68DA687B681B6822F48072DA6049
:105314007B681B685A697B681B6822F001025A612A
:105324007B681B685A697B681B6822F040025A61DB
:105334007B68202283F83E207B6800221A637B6806
:105344001B68DA687B681B6822F01002DA607B68ED
:105354009B6B1846FDF7ACFA7B689A8D7B68DB8DF6
:105364009BB2D31A9BB21946786800F06DF851E0ED
:105374007B689A8D7B68DB8D9BB2D31A7B827B68BA
:10538400DB8D9BB2002B47D07B8A002B44D07B68FB
:105394001B68DA687B681B6822F49072DA607B68A9
:1053A4001B685A697B681B6822F001025A617B689A
:1053B400202283F83E207B6800221A637B681B68E6
:1053C400DA687B681B6822F01002DA607B8A19466F
:1053D400786800F039F81FE07B6A03F08003002B43
:1053E40008D03B6A03F08003002B03D0786800F0F8
:1053F400AFF812E07B6A03F04003002B0DD03B6A48
:1054040003F04003002B08D0786800F0F0F804E0C3
:1054140000BF02E000BF00E000BF2837BD4680BDEA
:105424002D55000880B483B000AF786000BF0C37FE
:10543400BD4680BC704780B483B000AF786000BFC5
:105444000C37BD4680BC704780B483B000AF786031
:105454000B467B8000BF0C37BD4680BC704780B4D0
:1054640085B000AFF860B9601346FB80FB68BA688A
:105474009A62FB68FA889A85FB68FA88DA85FB6881
:1054840000221A64FB68222283F83E20FB68002273
:1054940083F83C20FB681B68DA68FB681B6842F4ED
:1054A4008072DA60FB681B685A69FB681B6842F00B
:1054B40001025A61FB681B68DA68FB681B6842F0EA
:1054C4002002DA60002318461437BD4680BC7047BA
:1054D40080B483B000AF78607B681B68DA687B684F
:1054E4001B6822F49072DA607B681B685A697B68D7
:1054F4001B6822F001025A617B681B6B012B07D1E8
:105504007B681B68DA687B681B6822F01002DA602B
:105514007B68202283F83E207B6800221A6300BF48
:105524000C37BD4680BC704780B584B000AF78604E
:105534007B685B6AFB60FB680022DA85FB680022FB
:10554400DA84F868FFF777FF00BF1037BD4680BDE7
:1055540080B485B000AF78607B6893F83D30DBB2EF
:10556400212B3ED17B689B68B3F5805F14D17B68A7
:105574001B69002B10D17B681B6AFB60FB681B88CE
:105584001A467B681B68C2F308025A607B681B6A70
:105594009A1C7B681A6208E07B681B6A591C7A684B
:1055A40011621A787B681B685A607B68DB8C9BB23B
:1055B400013B9BB27A681946D184002B0FD17B68DA
:1055C4001B68DA687B681B6822F08002DA607B68FB
:1055D4001B68DA687B681B6842F04002DA600023CB
:1055E40000E0022318461437BD4680BC704780B5DE
:1055F40082B000AF78607B681B68DA687B681B68E0
:1056040022F04002DA607B68202283F83D2078682B
:10561400FFF708FF002318460837BD4680BD80B554
:1056240086B000AF78607B6893F83E30DBB2222B03
:1056340040F099807B689B68B3F5805F17D17B68E5
:105644001B69002B13D100237B617B689B6A3B6140
:105654007B681B685B689BB2C3F308039AB23B691F
:105664001A807B689B6A9A1C7B689A6226E07B6836
:105674009B6A7B6100233B617B689B68B3F5805F19
:1056840007D07B689B68002B0AD17B681B69002BC1
:1056940006D17B681B685B68DAB27B691A7008E024
:1056A4007B681B685B68DBB203F07F03DAB27B695B
:1056B4001A707B689B6A5A1C7B689A627B68DB8DD4
:1056C4009BB2013B9BB27A681946D185002B48D125
:1056D4007B681B68DA687B681B6822F02002DA604A
:1056E4007B681B68DA687B681B6822F48072DA6066
:1056F4007B681B685A697B681B6822F001025A6147
:105704007B68202283F83E207B681B6B012B23D10E
:105714007B6800221A637B681B68DA687B681B68F5
:1057240022F01002DA607B681B681B6803F0100328
:10573400102B0AD10023FB607B681B681B68FB608D
:105744007B681B685B68FB60FB687B689B8D194604
:105754007868FFF779FE02E07868FBF733FF0023EF
:1057640002E0002300E0022318461837BD4680BD3E
:1057740080B584B000AF78607B681B681B6923F434
:1057840040517B68DA687B681B680A431A617B684E
:105794009A687B681B691A437B685B691343BB6027
:1057A4007B681B68DB6823F4B05323F00C037A682E
:1057B4001268B9680B43D3607B681B685B6923F488
:1057C40040717B689A697B681B680A435A617B68ED
:1057D4001B682C4A934203D1FEF7ACF9F86002E04F
:1057E400FEF794F9F860FA6813469B0013449A0094
:1057F4001A447B685B689B00B2FBF3F3224AA2FB6A
:1058040003235B091901FA6813469B0013449A00A9
:105814001A447B685B689B00B2FBF3F21A4BA3FB50
:1058240002035B09642000FB03F3D31A1B01323328
:10583400154AA2FB03235B0903F0F0031944FA6839
:1058440013469B0013449A001A447B685B689B00D0
:10585400B2FBF3F20C4BA3FB02035B09642000FBD5
:1058640003F3D31A1B013233074AA2FB03235B0958
:1058740003F00F027B681B680A449A6000BF10376C
:10588400BD4680BD003801401F85EB5170B5002630
:105894000C4D0D4C641BA410A64209D100F022F853
:1058A40000260A4D0A4C641BA410A64205D170BD03
:1058B40055F8043B98470136EEE755F8043B984702
:1058C4000136F2E728590008285900082859000829
:1058D4002C59000803460244934200D1704703F850
:1058E400011BF9E7F8B500BFF8BC08BC9E46704739
:0C58F400F8B500BFF8BC08BC9E46704729
:1059000002030405060708090A0B0C0D0E0F101000
:10591000000000000000000001020304060708095F
:08592000000000000102030475
:045928000902000868
:04592C00E501000889
:105930005A5A5A5A95009500950095000024F40093
:0859400010000000010000004E
:040000050800245576
:00000001FF
